{
  "contractName": "dBank",
  "abi": [
    {
      "inputs": [
        {
          "internalType": "contract Token",
          "name": "_token",
          "type": "address"
        }
      ],
      "stateMutability": "nonpayable",
      "type": "constructor"
    },
    {
      "inputs": [
        {
          "internalType": "address",
          "name": "",
          "type": "address"
        }
      ],
      "name": "TokenBalanceOf",
      "outputs": [
        {
          "internalType": "uint256",
          "name": "",
          "type": "uint256"
        }
      ],
      "stateMutability": "view",
      "type": "function",
      "constant": true
    },
    {
      "inputs": [
        {
          "internalType": "address",
          "name": "",
          "type": "address"
        },
        {
          "internalType": "address",
          "name": "",
          "type": "address"
        }
      ],
      "name": "TokenBorrowBalanceOf",
      "outputs": [
        {
          "internalType": "uint256",
          "name": "",
          "type": "uint256"
        }
      ],
      "stateMutability": "view",
      "type": "function",
      "constant": true
    },
    {
      "inputs": [
        {
          "internalType": "address",
          "name": "",
          "type": "address"
        },
        {
          "internalType": "address",
          "name": "",
          "type": "address"
        }
      ],
      "name": "TokenLendBalanceOf",
      "outputs": [
        {
          "internalType": "uint256",
          "name": "",
          "type": "uint256"
        }
      ],
      "stateMutability": "view",
      "type": "function",
      "constant": true
    },
    {
      "inputs": [
        {
          "internalType": "address",
          "name": "",
          "type": "address"
        },
        {
          "internalType": "address",
          "name": "",
          "type": "address"
        }
      ],
      "name": "borrowBalanceOf",
      "outputs": [
        {
          "internalType": "uint256",
          "name": "",
          "type": "uint256"
        }
      ],
      "stateMutability": "view",
      "type": "function",
      "constant": true
    },
    {
      "inputs": [
        {
          "internalType": "address",
          "name": "",
          "type": "address"
        }
      ],
      "name": "etherBalanceOf",
      "outputs": [
        {
          "internalType": "uint256",
          "name": "",
          "type": "uint256"
        }
      ],
      "stateMutability": "view",
      "type": "function",
      "constant": true
    },
    {
      "inputs": [
        {
          "internalType": "address",
          "name": "",
          "type": "address"
        },
        {
          "internalType": "address",
          "name": "",
          "type": "address"
        }
      ],
      "name": "interest",
      "outputs": [
        {
          "internalType": "uint256",
          "name": "",
          "type": "uint256"
        }
      ],
      "stateMutability": "view",
      "type": "function",
      "constant": true
    },
    {
      "inputs": [
        {
          "internalType": "address",
          "name": "",
          "type": "address"
        }
      ],
      "name": "isDeposited",
      "outputs": [
        {
          "internalType": "bool",
          "name": "",
          "type": "bool"
        }
      ],
      "stateMutability": "view",
      "type": "function",
      "constant": true
    },
    {
      "inputs": [
        {
          "internalType": "address",
          "name": "",
          "type": "address"
        }
      ],
      "name": "isStake",
      "outputs": [
        {
          "internalType": "bool",
          "name": "",
          "type": "bool"
        }
      ],
      "stateMutability": "view",
      "type": "function",
      "constant": true
    },
    {
      "inputs": [
        {
          "internalType": "address",
          "name": "",
          "type": "address"
        },
        {
          "internalType": "address",
          "name": "",
          "type": "address"
        }
      ],
      "name": "lendBalanceOf",
      "outputs": [
        {
          "internalType": "uint256",
          "name": "",
          "type": "uint256"
        }
      ],
      "stateMutability": "view",
      "type": "function",
      "constant": true
    },
    {
      "inputs": [],
      "name": "receiver",
      "outputs": [
        {
          "internalType": "address payable",
          "name": "",
          "type": "address"
        }
      ],
      "stateMutability": "view",
      "type": "function",
      "constant": true
    },
    {
      "inputs": [
        {
          "internalType": "address",
          "name": "",
          "type": "address"
        }
      ],
      "name": "stakeBalanceOf",
      "outputs": [
        {
          "internalType": "uint256",
          "name": "",
          "type": "uint256"
        }
      ],
      "stateMutability": "view",
      "type": "function",
      "constant": true
    },
    {
      "inputs": [
        {
          "internalType": "address",
          "name": "",
          "type": "address"
        }
      ],
      "name": "stakeStart",
      "outputs": [
        {
          "internalType": "uint256",
          "name": "",
          "type": "uint256"
        }
      ],
      "stateMutability": "view",
      "type": "function",
      "constant": true
    },
    {
      "inputs": [],
      "name": "deposit",
      "outputs": [],
      "stateMutability": "payable",
      "type": "function",
      "payable": true
    },
    {
      "inputs": [],
      "name": "withdraw",
      "outputs": [],
      "stateMutability": "payable",
      "type": "function",
      "payable": true
    },
    {
      "inputs": [
        {
          "internalType": "uint256",
          "name": "amount",
          "type": "uint256"
        }
      ],
      "name": "CocWithEtherDeposit",
      "outputs": [],
      "stateMutability": "payable",
      "type": "function",
      "payable": true
    },
    {
      "inputs": [],
      "name": "Coc",
      "outputs": [],
      "stateMutability": "payable",
      "type": "function",
      "payable": true
    },
    {
      "inputs": [
        {
          "internalType": "uint256",
          "name": "amount",
          "type": "uint256"
        }
      ],
      "name": "CocWithToken",
      "outputs": [],
      "stateMutability": "payable",
      "type": "function",
      "payable": true
    },
    {
      "inputs": [
        {
          "internalType": "address payable",
          "name": "receiver",
          "type": "address"
        }
      ],
      "name": "withState",
      "outputs": [],
      "stateMutability": "nonpayable",
      "type": "function"
    },
    {
      "inputs": [
        {
          "internalType": "address payable",
          "name": "receiver",
          "type": "address"
        }
      ],
      "name": "withStateToken",
      "outputs": [],
      "stateMutability": "nonpayable",
      "type": "function"
    },
    {
      "inputs": [
        {
          "internalType": "address payable",
          "name": "receiver",
          "type": "address"
        },
        {
          "internalType": "uint256",
          "name": "interested",
          "type": "uint256"
        }
      ],
      "name": "lendToken",
      "outputs": [],
      "stateMutability": "payable",
      "type": "function",
      "payable": true
    },
    {
      "inputs": [
        {
          "internalType": "address payable",
          "name": "receiver",
          "type": "address"
        },
        {
          "internalType": "uint256",
          "name": "amount",
          "type": "uint256"
        },
        {
          "internalType": "uint256",
          "name": "interested",
          "type": "uint256"
        }
      ],
      "name": "lendEther",
      "outputs": [],
      "stateMutability": "payable",
      "type": "function",
      "payable": true
    },
    {
      "inputs": [
        {
          "internalType": "address payable",
          "name": "receiver",
          "type": "address"
        },
        {
          "internalType": "uint256",
          "name": "interested",
          "type": "uint256"
        }
      ],
      "name": "lendEtherDerectly",
      "outputs": [],
      "stateMutability": "payable",
      "type": "function",
      "payable": true
    },
    {
      "inputs": [
        {
          "internalType": "address payable",
          "name": "receiver",
          "type": "address"
        },
        {
          "internalType": "uint256",
          "name": "amount",
          "type": "uint256"
        }
      ],
      "name": "payOffEther",
      "outputs": [],
      "stateMutability": "payable",
      "type": "function",
      "payable": true
    },
    {
      "inputs": [
        {
          "internalType": "address payable",
          "name": "receiver",
          "type": "address"
        }
      ],
      "name": "payOffToken",
      "outputs": [],
      "stateMutability": "payable",
      "type": "function",
      "payable": true
    },
    {
      "inputs": [
        {
          "internalType": "address",
          "name": "sender",
          "type": "address"
        }
      ],
      "name": "getBalance",
      "outputs": [
        {
          "internalType": "uint256",
          "name": "",
          "type": "uint256"
        }
      ],
      "stateMutability": "view",
      "type": "function",
      "constant": true
    },
    {
      "inputs": [
        {
          "internalType": "address",
          "name": "sender",
          "type": "address"
        }
      ],
      "name": "getToken",
      "outputs": [
        {
          "internalType": "uint256",
          "name": "",
          "type": "uint256"
        }
      ],
      "stateMutability": "view",
      "type": "function",
      "constant": true
    },
    {
      "inputs": [
        {
          "internalType": "address",
          "name": "sender",
          "type": "address"
        }
      ],
      "name": "getStake",
      "outputs": [
        {
          "internalType": "uint256",
          "name": "",
          "type": "uint256"
        }
      ],
      "stateMutability": "view",
      "type": "function",
      "constant": true
    },
    {
      "inputs": [],
      "name": "getAmountStaker",
      "outputs": [
        {
          "internalType": "uint256",
          "name": "",
          "type": "uint256"
        }
      ],
      "stateMutability": "view",
      "type": "function",
      "constant": true
    },
    {
      "inputs": [
        {
          "internalType": "uint256",
          "name": "index",
          "type": "uint256"
        }
      ],
      "name": "getStaker",
      "outputs": [
        {
          "internalType": "address",
          "name": "",
          "type": "address"
        }
      ],
      "stateMutability": "view",
      "type": "function",
      "constant": true
    },
    {
      "inputs": [
        {
          "internalType": "address",
          "name": "receiver",
          "type": "address"
        }
      ],
      "name": "getStakeBalanceOf",
      "outputs": [
        {
          "internalType": "uint256",
          "name": "",
          "type": "uint256"
        }
      ],
      "stateMutability": "view",
      "type": "function",
      "constant": true
    },
    {
      "inputs": [
        {
          "internalType": "address",
          "name": "receiver",
          "type": "address"
        }
      ],
      "name": "getStakeMethod",
      "outputs": [
        {
          "internalType": "string",
          "name": "",
          "type": "string"
        }
      ],
      "stateMutability": "view",
      "type": "function",
      "constant": true
    },
    {
      "inputs": [],
      "name": "getBorrowerAmount",
      "outputs": [
        {
          "internalType": "uint256",
          "name": "",
          "type": "uint256"
        }
      ],
      "stateMutability": "view",
      "type": "function",
      "constant": true
    },
    {
      "inputs": [
        {
          "internalType": "uint256",
          "name": "index",
          "type": "uint256"
        }
      ],
      "name": "getBorrower",
      "outputs": [
        {
          "internalType": "address",
          "name": "",
          "type": "address"
        }
      ],
      "stateMutability": "view",
      "type": "function",
      "constant": true
    },
    {
      "inputs": [
        {
          "internalType": "address",
          "name": "receiver",
          "type": "address"
        }
      ],
      "name": "getLendBalanceOf",
      "outputs": [
        {
          "internalType": "uint256",
          "name": "",
          "type": "uint256"
        }
      ],
      "stateMutability": "view",
      "type": "function",
      "constant": true
    },
    {
      "inputs": [
        {
          "internalType": "address",
          "name": "receiver",
          "type": "address"
        }
      ],
      "name": "getTokenLend",
      "outputs": [
        {
          "internalType": "uint256",
          "name": "",
          "type": "uint256"
        }
      ],
      "stateMutability": "view",
      "type": "function",
      "constant": true
    },
    {
      "inputs": [
        {
          "internalType": "uint256",
          "name": "index",
          "type": "uint256"
        }
      ],
      "name": "getLendMethod",
      "outputs": [
        {
          "internalType": "string",
          "name": "",
          "type": "string"
        }
      ],
      "stateMutability": "view",
      "type": "function",
      "constant": true
    },
    {
      "inputs": [
        {
          "internalType": "address",
          "name": "receiver",
          "type": "address"
        }
      ],
      "name": "getLendPayOffAmountEther",
      "outputs": [
        {
          "internalType": "uint256",
          "name": "",
          "type": "uint256"
        }
      ],
      "stateMutability": "view",
      "type": "function",
      "constant": true
    },
    {
      "inputs": [
        {
          "internalType": "address",
          "name": "receiver",
          "type": "address"
        }
      ],
      "name": "getLendPayOffAmountToken",
      "outputs": [
        {
          "internalType": "uint256",
          "name": "",
          "type": "uint256"
        }
      ],
      "stateMutability": "view",
      "type": "function",
      "constant": true
    },
    {
      "inputs": [],
      "name": "getLenderAmount",
      "outputs": [
        {
          "internalType": "uint256",
          "name": "",
          "type": "uint256"
        }
      ],
      "stateMutability": "view",
      "type": "function",
      "constant": true
    },
    {
      "inputs": [
        {
          "internalType": "uint256",
          "name": "index",
          "type": "uint256"
        }
      ],
      "name": "getLender",
      "outputs": [
        {
          "internalType": "address",
          "name": "",
          "type": "address"
        }
      ],
      "stateMutability": "view",
      "type": "function",
      "constant": true
    },
    {
      "inputs": [
        {
          "internalType": "address",
          "name": "receiver",
          "type": "address"
        }
      ],
      "name": "getBorrowBalanceOf",
      "outputs": [
        {
          "internalType": "uint256",
          "name": "",
          "type": "uint256"
        }
      ],
      "stateMutability": "view",
      "type": "function",
      "constant": true
    },
    {
      "inputs": [
        {
          "internalType": "address",
          "name": "receiver",
          "type": "address"
        }
      ],
      "name": "getTokenBorrow",
      "outputs": [
        {
          "internalType": "uint256",
          "name": "",
          "type": "uint256"
        }
      ],
      "stateMutability": "view",
      "type": "function",
      "constant": true
    },
    {
      "inputs": [
        {
          "internalType": "uint256",
          "name": "index",
          "type": "uint256"
        }
      ],
      "name": "getBorrowMethod",
      "outputs": [
        {
          "internalType": "string",
          "name": "",
          "type": "string"
        }
      ],
      "stateMutability": "view",
      "type": "function",
      "constant": true
    },
    {
      "inputs": [
        {
          "internalType": "address",
          "name": "receiver",
          "type": "address"
        }
      ],
      "name": "getPayOffAmountEther",
      "outputs": [
        {
          "internalType": "uint256",
          "name": "",
          "type": "uint256"
        }
      ],
      "stateMutability": "view",
      "type": "function",
      "constant": true
    },
    {
      "inputs": [
        {
          "internalType": "address",
          "name": "receiver",
          "type": "address"
        }
      ],
      "name": "getPayOffAmountToken",
      "outputs": [
        {
          "internalType": "uint256",
          "name": "",
          "type": "uint256"
        }
      ],
      "stateMutability": "view",
      "type": "function",
      "constant": true
    }
  ],
  "bytecode": "0x60806040523480156200001157600080fd5b50604051620058b9380380620058b9833981810160405260208110156200003757600080fd5b8101908080519060200190929190505050806000806101000a81548173ffffffffffffffffffffffffffffffffffffffff021916908373ffffffffffffffffffffffffffffffffffffffff1602179055505061582080620000996000396000f3fe6080604052600436106102725760003560e01c806392175dc11161014f578063d9a8344f116100c1578063f5af8d111161007a578063f5af8d1114611048578063f7260d3e146110cd578063f8b2cb4f1461110e578063fa2c7f9b14611173578063fc83f9b6146111d8578063ffb4a9291461122957610272565b8063d9a8344f14610dca578063dc1d8aac14610e2f578063e3c998fe14610e94578063e409d4cb14610ef9578063e72af41a14610f7e578063e9aea8c814610fe357610272565b8063af46aa0811610113578063af46aa0814610bdc578063b07a345c14610c41578063b2a9977114610ca6578063c5aa984414610d0b578063d0e30db014610d72578063d2d185e114610d7c57610272565b806392175dc1146109b557806398de041b14610a065780639c10a67814610a6b5780639c4e9f2414610ac3578063a5a49ece14610b2857610272565b80633ad438eb116101e85780636dfd5420116101ac5780636dfd5420146107ea57806373732024146107f45780637a7664601461085b5780638500d919146108c057806385a583d41461092557806390fde7db1461095057610272565b80633ad438eb146106875780633ccfd60b146106cb5780634504a431146106d55780635732756a1461075a578063597704381461078557610272565b8063254703551161023a5780632547035514610479578063260b5289146104c75780632635b152146104f55780632a1ed49a146105a95780632b4401ff146105d457806339d726a61461060257610272565b806301658b221461027757806309e2a1d3146102c557806312a7f6611461032a5780631537faf81461038f578063179fc99f14610414575b600080fd5b6102c36004803603604081101561028d57600080fd5b81019080803573ffffffffffffffffffffffffffffffffffffffff169060200190929190803590602001909291905050506112f3565b005b3480156102d157600080fd5b50610314600480360360208110156102e857600080fd5b81019080803573ffffffffffffffffffffffffffffffffffffffff169060200190929190505050611933565b6040518082815260200191505060405180910390f35b34801561033657600080fd5b506103796004803603602081101561034d57600080fd5b81019080803573ffffffffffffffffffffffffffffffffffffffff1690602001909291905050506119b9565b6040518082815260200191505060405180910390f35b34801561039b57600080fd5b506103fe600480360360408110156103b257600080fd5b81019080803573ffffffffffffffffffffffffffffffffffffffff169060200190929190803573ffffffffffffffffffffffffffffffffffffffff1690602001909291905050506119d1565b6040518082815260200191505060405180910390f35b34801561042057600080fd5b506104636004803603602081101561043757600080fd5b81019080803573ffffffffffffffffffffffffffffffffffffffff1690602001909291905050506119f6565b6040518082815260200191505060405180910390f35b6104c56004803603604081101561048f57600080fd5b81019080803573ffffffffffffffffffffffffffffffffffffffff16906020019092919080359060200190929190505050611a0e565b005b6104f3600480360360208110156104dd57600080fd5b8101908080359060200190929190505050612224565b005b34801561050157600080fd5b5061052e6004803603602081101561051857600080fd5b81019080803590602001909291905050506126f7565b6040518080602001828103825283818151815260200191508051906020019080838360005b8381101561056e578082015181840152602081019050610553565b50505050905090810190601f16801561059b5780820380516001836020036101000a031916815260200191505b509250505060405180910390f35b3480156105b557600080fd5b506105be6127ed565b6040518082815260200191505060405180910390f35b610600600480360360208110156105ea57600080fd5b8101908080359060200190929190505050612837565b005b34801561060e57600080fd5b506106716004803603604081101561062557600080fd5b81019080803573ffffffffffffffffffffffffffffffffffffffff169060200190929190803573ffffffffffffffffffffffffffffffffffffffff169060200190929190505050612c3c565b6040518082815260200191505060405180910390f35b6106c96004803603602081101561069d57600080fd5b81019080803573ffffffffffffffffffffffffffffffffffffffff169060200190929190505050612c61565b005b6106d3613060565b005b3480156106e157600080fd5b50610744600480360360408110156106f857600080fd5b81019080803573ffffffffffffffffffffffffffffffffffffffff169060200190929190803573ffffffffffffffffffffffffffffffffffffffff1690602001909291905050506132da565b6040518082815260200191505060405180910390f35b34801561076657600080fd5b5061076f6132ff565b6040518082815260200191505060405180910390f35b34801561079157600080fd5b506107d4600480360360208110156107a857600080fd5b81019080803573ffffffffffffffffffffffffffffffffffffffff16906020019092919050505061330c565b6040518082815260200191505060405180910390f35b6107f2613355565b005b34801561080057600080fd5b506108436004803603602081101561081757600080fd5b81019080803573ffffffffffffffffffffffffffffffffffffffff1690602001909291905050506136d4565b60405180821515815260200191505060405180910390f35b34801561086757600080fd5b506108aa6004803603602081101561087e57600080fd5b81019080803573ffffffffffffffffffffffffffffffffffffffff1690602001909291905050506136f4565b6040518082815260200191505060405180910390f35b3480156108cc57600080fd5b506108f9600480360360208110156108e357600080fd5b810190808035906020019092919050505061373d565b604051808273ffffffffffffffffffffffffffffffffffffffff16815260200191505060405180910390f35b34801561093157600080fd5b5061093a6137bb565b6040518082815260200191505060405180910390f35b34801561095c57600080fd5b5061099f6004803603602081101561097357600080fd5b81019080803573ffffffffffffffffffffffffffffffffffffffff169060200190929190505050613805565b6040518082815260200191505060405180910390f35b3480156109c157600080fd5b50610a04600480360360208110156109d857600080fd5b81019080803573ffffffffffffffffffffffffffffffffffffffff16906020019092919050505061388b565b005b348015610a1257600080fd5b50610a5560048036036020811015610a2957600080fd5b81019080803573ffffffffffffffffffffffffffffffffffffffff169060200190929190505050613c78565b6040518082815260200191505060405180910390f35b610ac160048036036060811015610a8157600080fd5b81019080803573ffffffffffffffffffffffffffffffffffffffff1690602001909291908035906020019092919080359060200190929190505050613cfe565b005b348015610acf57600080fd5b50610b1260048036036020811015610ae657600080fd5b81019080803573ffffffffffffffffffffffffffffffffffffffff169060200190929190505050614441565b6040518082815260200191505060405180910390f35b348015610b3457600080fd5b50610b6160048036036020811015610b4b57600080fd5b8101908080359060200190929190505050614459565b6040518080602001828103825283818151815260200191508051906020019080838360005b83811015610ba1578082015181840152602081019050610b86565b50505050905090810190601f168015610bce5780820380516001836020036101000a031916815260200191505b509250505060405180910390f35b348015610be857600080fd5b50610c2b60048036036020811015610bff57600080fd5b81019080803573ffffffffffffffffffffffffffffffffffffffff16906020019092919050505061454f565b6040518082815260200191505060405180910390f35b348015610c4d57600080fd5b50610c9060048036036020811015610c6457600080fd5b81019080803573ffffffffffffffffffffffffffffffffffffffff169060200190929190505050614567565b6040518082815260200191505060405180910390f35b348015610cb257600080fd5b50610cf560048036036020811015610cc957600080fd5b81019080803573ffffffffffffffffffffffffffffffffffffffff1690602001909291905050506146f3565b6040518082815260200191505060405180910390f35b348015610d1757600080fd5b50610d5a60048036036020811015610d2e57600080fd5b81019080803573ffffffffffffffffffffffffffffffffffffffff16906020019092919050505061487f565b60405180821515815260200191505060405180910390f35b610d7a61489f565b005b610dc860048036036040811015610d9257600080fd5b81019080803573ffffffffffffffffffffffffffffffffffffffff169060200190929190803590602001909291905050506149de565b005b348015610dd657600080fd5b50610e1960048036036020811015610ded57600080fd5b81019080803573ffffffffffffffffffffffffffffffffffffffff169060200190929190505050614db1565b6040518082815260200191505060405180910390f35b348015610e3b57600080fd5b50610e7e60048036036020811015610e5257600080fd5b81019080803573ffffffffffffffffffffffffffffffffffffffff169060200190929190505050614e37565b6040518082815260200191505060405180910390f35b348015610ea057600080fd5b50610ecd60048036036020811015610eb757600080fd5b8101908080359060200190929190505050614fc3565b604051808273ffffffffffffffffffffffffffffffffffffffff16815260200191505060405180910390f35b348015610f0557600080fd5b50610f6860048036036040811015610f1c57600080fd5b81019080803573ffffffffffffffffffffffffffffffffffffffff169060200190929190803573ffffffffffffffffffffffffffffffffffffffff169060200190929190505050615004565b6040518082815260200191505060405180910390f35b348015610f8a57600080fd5b50610fcd60048036036020811015610fa157600080fd5b81019080803573ffffffffffffffffffffffffffffffffffffffff169060200190929190505050615029565b6040518082815260200191505060405180910390f35b348015610fef57600080fd5b506110326004803603602081101561100657600080fd5b81019080803573ffffffffffffffffffffffffffffffffffffffff1690602001909291905050506151b5565b6040518082815260200191505060405180910390f35b34801561105457600080fd5b506110b76004803603604081101561106b57600080fd5b81019080803573ffffffffffffffffffffffffffffffffffffffff169060200190929190803573ffffffffffffffffffffffffffffffffffffffff1690602001909291905050506151fe565b6040518082815260200191505060405180910390f35b3480156110d957600080fd5b506110e2615223565b604051808273ffffffffffffffffffffffffffffffffffffffff16815260200191505060405180910390f35b34801561111a57600080fd5b5061115d6004803603602081101561113157600080fd5b81019080803573ffffffffffffffffffffffffffffffffffffffff169060200190929190505050615249565b6040518082815260200191505060405180910390f35b34801561117f57600080fd5b506111ac6004803603602081101561119657600080fd5b8101908080359060200190929190505050615292565b604051808273ffffffffffffffffffffffffffffffffffffffff16815260200191505060405180910390f35b3480156111e457600080fd5b50611227600480360360208110156111fb57600080fd5b81019080803573ffffffffffffffffffffffffffffffffffffffff169060200190929190505050615310565b005b34801561123557600080fd5b506112786004803603602081101561124c57600080fd5b81019080803573ffffffffffffffffffffffffffffffffffffffff16906020019092919050505061561b565b6040518080602001828103825283818151815260200191508051906020019080838360005b838110156112b857808201518184015260208101905061129d565b50505050905090810190601f1680156112e55780820380516001836020036101000a031916815260200191505b509250505060405180910390f35b34600d60008473ffffffffffffffffffffffffffffffffffffffff1673ffffffffffffffffffffffffffffffffffffffff16815260200190815260200160002060003373ffffffffffffffffffffffffffffffffffffffff1673ffffffffffffffffffffffffffffffffffffffff1681526020019081526020016000206000828254019250508190555034601360003373ffffffffffffffffffffffffffffffffffffffff1673ffffffffffffffffffffffffffffffffffffffff16815260200190815260200160002060008473ffffffffffffffffffffffffffffffffffffffff1673ffffffffffffffffffffffffffffffffffffffff1681526020019081526020016000206000828254019250508190555080601260008473ffffffffffffffffffffffffffffffffffffffff1673ffffffffffffffffffffffffffffffffffffffff16815260200190815260200160002060003373ffffffffffffffffffffffffffffffffffffffff1673ffffffffffffffffffffffffffffffffffffffff1681526020019081526020016000206000828254019250508190555060001515601060008473ffffffffffffffffffffffffffffffffffffffff1673ffffffffffffffffffffffffffffffffffffffff16815260200190815260200160002060003373ffffffffffffffffffffffffffffffffffffffff1673ffffffffffffffffffffffffffffffffffffffff16815260200190815260200160002060009054906101000a900460ff16151514156117be57600f60008373ffffffffffffffffffffffffffffffffffffffff1673ffffffffffffffffffffffffffffffffffffffff168152602001908152602001600020339080600181540180825580915050600190039060005260206000200160009091909190916101000a81548173ffffffffffffffffffffffffffffffffffffffff021916908373ffffffffffffffffffffffffffffffffffffffff160217905550600c60008373ffffffffffffffffffffffffffffffffffffffff1673ffffffffffffffffffffffffffffffffffffffff16815260200190815260200160002080600181540180825580915050600190039060005260206000200160006040518060400160405280600581526020017f4574686572000000000000000000000000000000000000000000000000000000815250909190915090805190602001906116719291906156fc565b50601660003373ffffffffffffffffffffffffffffffffffffffff1673ffffffffffffffffffffffffffffffffffffffff168152602001908152602001600020829080600181540180825580915050600190039060005260206000200160009091909190916101000a81548173ffffffffffffffffffffffffffffffffffffffff021916908373ffffffffffffffffffffffffffffffffffffffff160217905550601560003373ffffffffffffffffffffffffffffffffffffffff1673ffffffffffffffffffffffffffffffffffffffff16815260200190815260200160002080600181540180825580915050600190039060005260206000200160006040518060400160405280600581526020017f4574686572000000000000000000000000000000000000000000000000000000815250909190915090805190602001906117bc9291906156fc565b505b6001601060008473ffffffffffffffffffffffffffffffffffffffff1673ffffffffffffffffffffffffffffffffffffffff16815260200190815260200160002060003373ffffffffffffffffffffffffffffffffffffffff1673ffffffffffffffffffffffffffffffffffffffff16815260200190815260200160002060006101000a81548160ff0219169083151502179055506001601760008473ffffffffffffffffffffffffffffffffffffffff1673ffffffffffffffffffffffffffffffffffffffff16815260200190815260200160002060003373ffffffffffffffffffffffffffffffffffffffff1673ffffffffffffffffffffffffffffffffffffffff16815260200190815260200160002060006101000a81548160ff0219169083151502179055508173ffffffffffffffffffffffffffffffffffffffff166108fc349081150290604051600060405180830381858888f1935050505015801561192e573d6000803e3d6000fd5b505050565b6000600d60003373ffffffffffffffffffffffffffffffffffffffff1673ffffffffffffffffffffffffffffffffffffffff16815260200190815260200160002060008373ffffffffffffffffffffffffffffffffffffffff1673ffffffffffffffffffffffffffffffffffffffff168152602001908152602001600020549050919050565b60066020528060005260406000206000915090505481565b6014602052816000526040600020602052806000526040600020600091509150505481565b600a6020528060005260406000206000915090505481565b34600960003373ffffffffffffffffffffffffffffffffffffffff1673ffffffffffffffffffffffffffffffffffffffff168152602001908152602001600020541015611aa6576040517f08c379a00000000000000000000000000000000000000000000000000000000081526004018080602001828103825260218152602001806157ca6021913960400191505060405180910390fd5b60008054906101000a900473ffffffffffffffffffffffffffffffffffffffff1673ffffffffffffffffffffffffffffffffffffffff166323b872dd3384346040518463ffffffff1660e01b8152600401808473ffffffffffffffffffffffffffffffffffffffff1681526020018373ffffffffffffffffffffffffffffffffffffffff1681526020018281526020019350505050602060405180830381600087803b158015611b5557600080fd5b505af1158015611b69573d6000803e3d6000fd5b505050506040513d6020811015611b7f57600080fd5b81019080805190602001909291905050505034600960003373ffffffffffffffffffffffffffffffffffffffff1673ffffffffffffffffffffffffffffffffffffffff1681526020019081526020016000206000828254039250508190555034600960008473ffffffffffffffffffffffffffffffffffffffff1673ffffffffffffffffffffffffffffffffffffffff1681526020019081526020016000206000828254019250508190555060001515601160008473ffffffffffffffffffffffffffffffffffffffff1673ffffffffffffffffffffffffffffffffffffffff16815260200190815260200160002060003373ffffffffffffffffffffffffffffffffffffffff1673ffffffffffffffffffffffffffffffffffffffff16815260200190815260200160002060009054906101000a900460ff1615151415611f5857600f60008373ffffffffffffffffffffffffffffffffffffffff1673ffffffffffffffffffffffffffffffffffffffff168152602001908152602001600020339080600181540180825580915050600190039060005260206000200160009091909190916101000a81548173ffffffffffffffffffffffffffffffffffffffff021916908373ffffffffffffffffffffffffffffffffffffffff160217905550600c60008373ffffffffffffffffffffffffffffffffffffffff1673ffffffffffffffffffffffffffffffffffffffff16815260200190815260200160002080600181540180825580915050600190039060005260206000200160006040518060400160405280600581526020017f546f6b656e00000000000000000000000000000000000000000000000000000081525090919091509080519060200190611e0b9291906156fc565b50601660003373ffffffffffffffffffffffffffffffffffffffff1673ffffffffffffffffffffffffffffffffffffffff168152602001908152602001600020829080600181540180825580915050600190039060005260206000200160009091909190916101000a81548173ffffffffffffffffffffffffffffffffffffffff021916908373ffffffffffffffffffffffffffffffffffffffff160217905550601560003373ffffffffffffffffffffffffffffffffffffffff1673ffffffffffffffffffffffffffffffffffffffff16815260200190815260200160002080600181540180825580915050600190039060005260206000200160006040518060400160405280600581526020017f546f6b656e00000000000000000000000000000000000000000000000000000081525090919091509080519060200190611f569291906156fc565b505b34600e60008473ffffffffffffffffffffffffffffffffffffffff1673ffffffffffffffffffffffffffffffffffffffff16815260200190815260200160002060003373ffffffffffffffffffffffffffffffffffffffff1673ffffffffffffffffffffffffffffffffffffffff1681526020019081526020016000206000828254019250508190555034601460003373ffffffffffffffffffffffffffffffffffffffff1673ffffffffffffffffffffffffffffffffffffffff16815260200190815260200160002060008473ffffffffffffffffffffffffffffffffffffffff1673ffffffffffffffffffffffffffffffffffffffff1681526020019081526020016000206000828254019250508190555080601260003373ffffffffffffffffffffffffffffffffffffffff1673ffffffffffffffffffffffffffffffffffffffff16815260200190815260200160002060008473ffffffffffffffffffffffffffffffffffffffff1673ffffffffffffffffffffffffffffffffffffffff168152602001908152602001600020600082825401925050819055506001601160008473ffffffffffffffffffffffffffffffffffffffff1673ffffffffffffffffffffffffffffffffffffffff16815260200190815260200160002060003373ffffffffffffffffffffffffffffffffffffffff1673ffffffffffffffffffffffffffffffffffffffff16815260200190815260200160002060006101000a81548160ff0219169083151502179055506001601860003373ffffffffffffffffffffffffffffffffffffffff1673ffffffffffffffffffffffffffffffffffffffff16815260200190815260200160002060008473ffffffffffffffffffffffffffffffffffffffff1673ffffffffffffffffffffffffffffffffffffffff16815260200190815260200160002060006101000a81548160ff0219169083151502179055505050565b80600960003373ffffffffffffffffffffffffffffffffffffffff1673ffffffffffffffffffffffffffffffffffffffff1681526020019081526020016000205410156122bc576040517f08c379a00000000000000000000000000000000000000000000000000000000081526004018080602001828103825260218152602001806157ca6021913960400191505060405180910390fd5b60008054906101000a900473ffffffffffffffffffffffffffffffffffffffff1673ffffffffffffffffffffffffffffffffffffffff166323b872dd3330846040518463ffffffff1660e01b8152600401808473ffffffffffffffffffffffffffffffffffffffff1681526020018373ffffffffffffffffffffffffffffffffffffffff1681526020018281526020019350505050602060405180830381600087803b15801561236b57600080fd5b505af115801561237f573d6000803e3d6000fd5b505050506040513d602081101561239557600080fd5b81019080805190602001909291905050505080600860003373ffffffffffffffffffffffffffffffffffffffff1673ffffffffffffffffffffffffffffffffffffffff1681526020019081526020016000205401600860003373ffffffffffffffffffffffffffffffffffffffff1673ffffffffffffffffffffffffffffffffffffffff1681526020019081526020016000208190555042600660003373ffffffffffffffffffffffffffffffffffffffff1673ffffffffffffffffffffffffffffffffffffffff1681526020019081526020016000205401600660003373ffffffffffffffffffffffffffffffffffffffff1673ffffffffffffffffffffffffffffffffffffffff1681526020019081526020016000208190555080600960003373ffffffffffffffffffffffffffffffffffffffff1673ffffffffffffffffffffffffffffffffffffffff1681526020019081526020016000206000828254039250508190555060001515600460003373ffffffffffffffffffffffffffffffffffffffff1673ffffffffffffffffffffffffffffffffffffffff16815260200190815260200160002060009054906101000a900460ff16151514156125bb576002339080600181540180825580915050600190039060005260206000200160009091909190916101000a81548173ffffffffffffffffffffffffffffffffffffffff021916908373ffffffffffffffffffffffffffffffffffffffff1602179055505b6001600760003373ffffffffffffffffffffffffffffffffffffffff1673ffffffffffffffffffffffffffffffffffffffff16815260200190815260200160002060006101000a81548160ff0219169083151502179055506001600460003373ffffffffffffffffffffffffffffffffffffffff1673ffffffffffffffffffffffffffffffffffffffff16815260200190815260200160002060006101000a81548160ff0219169083151502179055506040518060400160405280600581526020017f546f6b656e000000000000000000000000000000000000000000000000000000815250600560003373ffffffffffffffffffffffffffffffffffffffff1673ffffffffffffffffffffffffffffffffffffffff16815260200190815260200160002090805190602001906126f39291906156fc565b5050565b6060601560003373ffffffffffffffffffffffffffffffffffffffff1673ffffffffffffffffffffffffffffffffffffffff168152602001908152602001600020828154811061274357fe5b906000526020600020018054600181600116156101000203166002900480601f0160208091040260200160405190810160405280929190818152602001828054600181600116156101000203166002900480156127e15780601f106127b6576101008083540402835291602001916127e1565b820191906000526020600020905b8154815290600101906020018083116127c457829003601f168201915b50505050509050919050565b6000600f60003373ffffffffffffffffffffffffffffffffffffffff1673ffffffffffffffffffffffffffffffffffffffff16815260200190815260200160002080549050905090565b80600a60003373ffffffffffffffffffffffffffffffffffffffff1673ffffffffffffffffffffffffffffffffffffffff1681526020019081526020016000205410156128ec576040517f08c379a000000000000000000000000000000000000000000000000000000000815260040180806020018281038252601d8152602001807f4572726f722c206465706f73697420616c72656164792061637469766500000081525060200191505060405180910390fd5b80600860003373ffffffffffffffffffffffffffffffffffffffff1673ffffffffffffffffffffffffffffffffffffffff1681526020019081526020016000205401600860003373ffffffffffffffffffffffffffffffffffffffff1673ffffffffffffffffffffffffffffffffffffffff1681526020019081526020016000208190555042600660003373ffffffffffffffffffffffffffffffffffffffff1673ffffffffffffffffffffffffffffffffffffffff1681526020019081526020016000205401600660003373ffffffffffffffffffffffffffffffffffffffff1673ffffffffffffffffffffffffffffffffffffffff1681526020019081526020016000208190555080600a60003373ffffffffffffffffffffffffffffffffffffffff1673ffffffffffffffffffffffffffffffffffffffff1681526020019081526020016000206000828254039250508190555060001515600460003373ffffffffffffffffffffffffffffffffffffffff1673ffffffffffffffffffffffffffffffffffffffff16815260200190815260200160002060009054906101000a900460ff1615151415612b00576002339080600181540180825580915050600190039060005260206000200160009091909190916101000a81548173ffffffffffffffffffffffffffffffffffffffff021916908373ffffffffffffffffffffffffffffffffffffffff1602179055505b6001600760003373ffffffffffffffffffffffffffffffffffffffff1673ffffffffffffffffffffffffffffffffffffffff16815260200190815260200160002060006101000a81548160ff0219169083151502179055506001600460003373ffffffffffffffffffffffffffffffffffffffff1673ffffffffffffffffffffffffffffffffffffffff16815260200190815260200160002060006101000a81548160ff0219169083151502179055506040518060400160405280600581526020017f4574686572000000000000000000000000000000000000000000000000000000815250600560003373ffffffffffffffffffffffffffffffffffffffff1673ffffffffffffffffffffffffffffffffffffffff1681526020019081526020016000209080519060200190612c389291906156fc565b5050565b600e602052816000526040600020602052806000526040600020600091509150505481565b6064600e60003373ffffffffffffffffffffffffffffffffffffffff1673ffffffffffffffffffffffffffffffffffffffff16815260200190815260200160002060008373ffffffffffffffffffffffffffffffffffffffff1673ffffffffffffffffffffffffffffffffffffffff16815260200190815260200160002054601260003373ffffffffffffffffffffffffffffffffffffffff1673ffffffffffffffffffffffffffffffffffffffff16815260200190815260200160002060008473ffffffffffffffffffffffffffffffffffffffff1673ffffffffffffffffffffffffffffffffffffffff168152602001908152602001600020540281612d6557fe5b04600e60003373ffffffffffffffffffffffffffffffffffffffff1673ffffffffffffffffffffffffffffffffffffffff16815260200190815260200160002060008373ffffffffffffffffffffffffffffffffffffffff1673ffffffffffffffffffffffffffffffffffffffff16815260200190815260200160002054016003819055506000601260008373ffffffffffffffffffffffffffffffffffffffff1673ffffffffffffffffffffffffffffffffffffffff16815260200190815260200160002060003373ffffffffffffffffffffffffffffffffffffffff1673ffffffffffffffffffffffffffffffffffffffff168152602001908152602001600020819055506000600e60003373ffffffffffffffffffffffffffffffffffffffff1673ffffffffffffffffffffffffffffffffffffffff16815260200190815260200160002060008373ffffffffffffffffffffffffffffffffffffffff1673ffffffffffffffffffffffffffffffffffffffff168152602001908152602001600020819055506000601460008373ffffffffffffffffffffffffffffffffffffffff1673ffffffffffffffffffffffffffffffffffffffff16815260200190815260200160002060003373ffffffffffffffffffffffffffffffffffffffff1673ffffffffffffffffffffffffffffffffffffffff1681526020019081526020016000208190555060008054906101000a900473ffffffffffffffffffffffffffffffffffffffff1673ffffffffffffffffffffffffffffffffffffffff166323b872dd33836003546040518463ffffffff1660e01b8152600401808473ffffffffffffffffffffffffffffffffffffffff1681526020018373ffffffffffffffffffffffffffffffffffffffff1681526020018281526020019350505050602060405180830381600087803b15801561302157600080fd5b505af1158015613035573d6000803e3d6000fd5b505050506040513d602081101561304b57600080fd5b81019080805190602001909291905050505050565b60011515600b60003373ffffffffffffffffffffffffffffffffffffffff1673ffffffffffffffffffffffffffffffffffffffff16815260200190815260200160002060009054906101000a900460ff16151514613126576040517f08c379a000000000000000000000000000000000000000000000000000000000815260040180806020018281038252601a8152602001807f4572726f722c206e6f2070726576696f7573206465706f73697400000000000081525060200191505060405180910390fd5b6000600a60003373ffffffffffffffffffffffffffffffffffffffff1673ffffffffffffffffffffffffffffffffffffffff1681526020019081526020016000205490503373ffffffffffffffffffffffffffffffffffffffff166108fc349081150290604051600060405180830381858888f193505050501580156131b0573d6000803e3d6000fd5b5034600a60003373ffffffffffffffffffffffffffffffffffffffff1673ffffffffffffffffffffffffffffffffffffffff1681526020019081526020016000205403600a60003373ffffffffffffffffffffffffffffffffffffffff1673ffffffffffffffffffffffffffffffffffffffff168152602001908152602001600020819055506000600a60003373ffffffffffffffffffffffffffffffffffffffff1673ffffffffffffffffffffffffffffffffffffffff1681526020019081526020016000205414156132d7576000600b60003373ffffffffffffffffffffffffffffffffffffffff1673ffffffffffffffffffffffffffffffffffffffff16815260200190815260200160002060006101000a81548160ff0219169083151502179055505b50565b600d602052816000526040600020602052806000526040600020600091509150505481565b6000600280549050905090565b6000600960008373ffffffffffffffffffffffffffffffffffffffff1673ffffffffffffffffffffffffffffffffffffffff168152602001908152602001600020549050919050565b662386f26fc100003410156133d2576040517f08c379a00000000000000000000000000000000000000000000000000000000081526004018080602001828103825260208152602001807f4572726f722c207374616b65206d757374206265203e3d20302e30312045544881525060200191505060405180910390fd5b34600860003373ffffffffffffffffffffffffffffffffffffffff1673ffffffffffffffffffffffffffffffffffffffff1681526020019081526020016000205401600860003373ffffffffffffffffffffffffffffffffffffffff1673ffffffffffffffffffffffffffffffffffffffff1681526020019081526020016000208190555042600660003373ffffffffffffffffffffffffffffffffffffffff1673ffffffffffffffffffffffffffffffffffffffff1681526020019081526020016000205401600660003373ffffffffffffffffffffffffffffffffffffffff1673ffffffffffffffffffffffffffffffffffffffff1681526020019081526020016000208190555060001515600460003373ffffffffffffffffffffffffffffffffffffffff1673ffffffffffffffffffffffffffffffffffffffff16815260200190815260200160002060009054906101000a900460ff1615151415613599576002339080600181540180825580915050600190039060005260206000200160009091909190916101000a81548173ffffffffffffffffffffffffffffffffffffffff021916908373ffffffffffffffffffffffffffffffffffffffff1602179055505b6001600760003373ffffffffffffffffffffffffffffffffffffffff1673ffffffffffffffffffffffffffffffffffffffff16815260200190815260200160002060006101000a81548160ff0219169083151502179055506001600460003373ffffffffffffffffffffffffffffffffffffffff1673ffffffffffffffffffffffffffffffffffffffff16815260200190815260200160002060006101000a81548160ff0219169083151502179055506040518060400160405280600581526020017f4574686572000000000000000000000000000000000000000000000000000000815250600560003373ffffffffffffffffffffffffffffffffffffffff1673ffffffffffffffffffffffffffffffffffffffff16815260200190815260200160002090805190602001906136d19291906156fc565b50565b600b6020528060005260406000206000915054906101000a900460ff1681565b6000600860008373ffffffffffffffffffffffffffffffffffffffff1673ffffffffffffffffffffffffffffffffffffffff168152602001908152602001600020549050919050565b6000601660003373ffffffffffffffffffffffffffffffffffffffff1673ffffffffffffffffffffffffffffffffffffffff168152602001908152602001600020828154811061378957fe5b9060005260206000200160009054906101000a900473ffffffffffffffffffffffffffffffffffffffff169050919050565b6000601660003373ffffffffffffffffffffffffffffffffffffffff1673ffffffffffffffffffffffffffffffffffffffff16815260200190815260200160002080549050905090565b6000601360003373ffffffffffffffffffffffffffffffffffffffff1673ffffffffffffffffffffffffffffffffffffffff16815260200190815260200160002060008373ffffffffffffffffffffffffffffffffffffffff1673ffffffffffffffffffffffffffffffffffffffff168152602001908152602001600020549050919050565b60011515600760008373ffffffffffffffffffffffffffffffffffffffff1673ffffffffffffffffffffffffffffffffffffffff16815260200190815260200160002060009054906101000a900460ff16151514613951576040517f08c379a000000000000000000000000000000000000000000000000000000000815260040180806020018281038252601a8152602001807f42616e206b686f6f6e6720636f207469656e2064617420636f6300000000000081525060200191505060405180910390fd5b6000600860008373ffffffffffffffffffffffffffffffffffffffff1673ffffffffffffffffffffffffffffffffffffffff1681526020019081526020016000205490506000678ac7230489e8000090506000600660008573ffffffffffffffffffffffffffffffffffffffff1673ffffffffffffffffffffffffffffffffffffffff1681526020019081526020016000205442039050601e811115613a5357600283816139fb57fe5b0483039250674563918244f4000091503373ffffffffffffffffffffffffffffffffffffffff166108fc849081150290604051600060405180830381858888f19350505050158015613a51573d6000803e3d6000fd5b505b60008054906101000a900473ffffffffffffffffffffffffffffffffffffffff1673ffffffffffffffffffffffffffffffffffffffff166340c10f1985846040518363ffffffff1660e01b8152600401808373ffffffffffffffffffffffffffffffffffffffff16815260200182815260200192505050600060405180830381600087803b158015613ae457600080fd5b505af1158015613af8573d6000803e3d6000fd5b505050508373ffffffffffffffffffffffffffffffffffffffff166108fc849081150290604051600060405180830381858888f19350505050158015613b42573d6000803e3d6000fd5b506000600860008673ffffffffffffffffffffffffffffffffffffffff1673ffffffffffffffffffffffffffffffffffffffff168152602001908152602001600020819055506000600660008673ffffffffffffffffffffffffffffffffffffffff1673ffffffffffffffffffffffffffffffffffffffff1681526020019081526020016000208190555081600960008673ffffffffffffffffffffffffffffffffffffffff1673ffffffffffffffffffffffffffffffffffffffff168152602001908152602001600020600082825401925050819055506000600760008673ffffffffffffffffffffffffffffffffffffffff1673ffffffffffffffffffffffffffffffffffffffff16815260200190815260200160002060006101000a81548160ff02191690831515021790555050505050565b6000601460003373ffffffffffffffffffffffffffffffffffffffff1673ffffffffffffffffffffffffffffffffffffffff16815260200190815260200160002060008373ffffffffffffffffffffffffffffffffffffffff1673ffffffffffffffffffffffffffffffffffffffff168152602001908152602001600020549050919050565b81600a60003373ffffffffffffffffffffffffffffffffffffffff1673ffffffffffffffffffffffffffffffffffffffff168152602001908152602001600020541015613db3576040517f08c379a000000000000000000000000000000000000000000000000000000000815260040180806020018281038252600d8152602001807f6b686f6e67206475207469656e0000000000000000000000000000000000000081525060200191505060405180910390fd5b81600a60003373ffffffffffffffffffffffffffffffffffffffff1673ffffffffffffffffffffffffffffffffffffffff1681526020019081526020016000206000828254039250508190555081600d60008573ffffffffffffffffffffffffffffffffffffffff1673ffffffffffffffffffffffffffffffffffffffff16815260200190815260200160002060003373ffffffffffffffffffffffffffffffffffffffff1673ffffffffffffffffffffffffffffffffffffffff1681526020019081526020016000206000828254019250508190555081601360003373ffffffffffffffffffffffffffffffffffffffff1673ffffffffffffffffffffffffffffffffffffffff16815260200190815260200160002060008573ffffffffffffffffffffffffffffffffffffffff1673ffffffffffffffffffffffffffffffffffffffff1681526020019081526020016000206000828254019250508190555080601260008573ffffffffffffffffffffffffffffffffffffffff1673ffffffffffffffffffffffffffffffffffffffff16815260200190815260200160002060003373ffffffffffffffffffffffffffffffffffffffff1673ffffffffffffffffffffffffffffffffffffffff1681526020019081526020016000206000828254019250508190555060001515601060008573ffffffffffffffffffffffffffffffffffffffff1673ffffffffffffffffffffffffffffffffffffffff16815260200190815260200160002060003373ffffffffffffffffffffffffffffffffffffffff1673ffffffffffffffffffffffffffffffffffffffff16815260200190815260200160002060009054906101000a900460ff16151514156142cb57600f60008473ffffffffffffffffffffffffffffffffffffffff1673ffffffffffffffffffffffffffffffffffffffff168152602001908152602001600020339080600181540180825580915050600190039060005260206000200160009091909190916101000a81548173ffffffffffffffffffffffffffffffffffffffff021916908373ffffffffffffffffffffffffffffffffffffffff160217905550600c60008473ffffffffffffffffffffffffffffffffffffffff1673ffffffffffffffffffffffffffffffffffffffff16815260200190815260200160002080600181540180825580915050600190039060005260206000200160006040518060400160405280600581526020017f45746865720000000000000000000000000000000000000000000000000000008152509091909150908051906020019061417e9291906156fc565b50601660003373ffffffffffffffffffffffffffffffffffffffff1673ffffffffffffffffffffffffffffffffffffffff168152602001908152602001600020839080600181540180825580915050600190039060005260206000200160009091909190916101000a81548173ffffffffffffffffffffffffffffffffffffffff021916908373ffffffffffffffffffffffffffffffffffffffff160217905550601560003373ffffffffffffffffffffffffffffffffffffffff1673ffffffffffffffffffffffffffffffffffffffff16815260200190815260200160002080600181540180825580915050600190039060005260206000200160006040518060400160405280600581526020017f4574686572000000000000000000000000000000000000000000000000000000815250909190915090805190602001906142c99291906156fc565b505b6001601060008573ffffffffffffffffffffffffffffffffffffffff1673ffffffffffffffffffffffffffffffffffffffff16815260200190815260200160002060003373ffffffffffffffffffffffffffffffffffffffff1673ffffffffffffffffffffffffffffffffffffffff16815260200190815260200160002060006101000a81548160ff0219169083151502179055506001601760003373ffffffffffffffffffffffffffffffffffffffff1673ffffffffffffffffffffffffffffffffffffffff16815260200190815260200160002060008573ffffffffffffffffffffffffffffffffffffffff1673ffffffffffffffffffffffffffffffffffffffff16815260200190815260200160002060006101000a81548160ff0219169083151502179055508273ffffffffffffffffffffffffffffffffffffffff166108fc839081150290604051600060405180830381858888f1935050505015801561443b573d6000803e3d6000fd5b50505050565b60096020528060005260406000206000915090505481565b6060600c60003373ffffffffffffffffffffffffffffffffffffffff1673ffffffffffffffffffffffffffffffffffffffff16815260200190815260200160002082815481106144a557fe5b906000526020600020018054600181600116156101000203166002900480601f0160208091040260200160405190810160405280929190818152602001828054600181600116156101000203166002900480156145435780601f1061451857610100808354040283529160200191614543565b820191906000526020600020905b81548152906001019060200180831161452657829003601f168201915b50505050509050919050565b60086020528060005260406000206000915090505481565b60006064600e60003373ffffffffffffffffffffffffffffffffffffffff1673ffffffffffffffffffffffffffffffffffffffff16815260200190815260200160002060008473ffffffffffffffffffffffffffffffffffffffff1673ffffffffffffffffffffffffffffffffffffffff16815260200190815260200160002054601260003373ffffffffffffffffffffffffffffffffffffffff1673ffffffffffffffffffffffffffffffffffffffff16815260200190815260200160002060008573ffffffffffffffffffffffffffffffffffffffff1673ffffffffffffffffffffffffffffffffffffffff16815260200190815260200160002054028161466d57fe5b04600e60003373ffffffffffffffffffffffffffffffffffffffff1673ffffffffffffffffffffffffffffffffffffffff16815260200190815260200160002060008473ffffffffffffffffffffffffffffffffffffffff1673ffffffffffffffffffffffffffffffffffffffff16815260200190815260200160002054019050919050565b60006064601360003373ffffffffffffffffffffffffffffffffffffffff1673ffffffffffffffffffffffffffffffffffffffff16815260200190815260200160002060008473ffffffffffffffffffffffffffffffffffffffff1673ffffffffffffffffffffffffffffffffffffffff16815260200190815260200160002054601260008573ffffffffffffffffffffffffffffffffffffffff1673ffffffffffffffffffffffffffffffffffffffff16815260200190815260200160002060003373ffffffffffffffffffffffffffffffffffffffff1673ffffffffffffffffffffffffffffffffffffffff1681526020019081526020016000205402816147f957fe5b04601360003373ffffffffffffffffffffffffffffffffffffffff1673ffffffffffffffffffffffffffffffffffffffff16815260200190815260200160002060008473ffffffffffffffffffffffffffffffffffffffff1673ffffffffffffffffffffffffffffffffffffffff16815260200190815260200160002054019050919050565b60076020528060005260406000206000915054906101000a900460ff1681565b662386f26fc100003410156148ff576040517f08c379a00000000000000000000000000000000000000000000000000000000081526004018080602001828103825260228152602001806157a86022913960400191505060405180910390fd5b34600a60003373ffffffffffffffffffffffffffffffffffffffff1673ffffffffffffffffffffffffffffffffffffffff1681526020019081526020016000205401600a60003373ffffffffffffffffffffffffffffffffffffffff1673ffffffffffffffffffffffffffffffffffffffff168152602001908152602001600020819055506001600b60003373ffffffffffffffffffffffffffffffffffffffff1673ffffffffffffffffffffffffffffffffffffffff16815260200190815260200160002060006101000a81548160ff021916908315150217905550565b6064600d60003373ffffffffffffffffffffffffffffffffffffffff1673ffffffffffffffffffffffffffffffffffffffff16815260200190815260200160002060008473ffffffffffffffffffffffffffffffffffffffff1673ffffffffffffffffffffffffffffffffffffffff16815260200190815260200160002054601260003373ffffffffffffffffffffffffffffffffffffffff1673ffffffffffffffffffffffffffffffffffffffff16815260200190815260200160002060008573ffffffffffffffffffffffffffffffffffffffff1673ffffffffffffffffffffffffffffffffffffffff168152602001908152602001600020540281614ae257fe5b04600d60003373ffffffffffffffffffffffffffffffffffffffff1673ffffffffffffffffffffffffffffffffffffffff16815260200190815260200160002060008473ffffffffffffffffffffffffffffffffffffffff1673ffffffffffffffffffffffffffffffffffffffff16815260200190815260200160002054016003819055506003548114614bde576040517f08c379a00000000000000000000000000000000000000000000000000000000081526004018080602001828103825260148152602001807f42616e207068616920747261206475207469656e00000000000000000000000081525060200191505060405180910390fd5b6000601260008473ffffffffffffffffffffffffffffffffffffffff1673ffffffffffffffffffffffffffffffffffffffff16815260200190815260200160002060003373ffffffffffffffffffffffffffffffffffffffff1673ffffffffffffffffffffffffffffffffffffffff168152602001908152602001600020819055506000600d60003373ffffffffffffffffffffffffffffffffffffffff1673ffffffffffffffffffffffffffffffffffffffff16815260200190815260200160002060008473ffffffffffffffffffffffffffffffffffffffff1673ffffffffffffffffffffffffffffffffffffffff168152602001908152602001600020819055506000601360008473ffffffffffffffffffffffffffffffffffffffff1673ffffffffffffffffffffffffffffffffffffffff16815260200190815260200160002060003373ffffffffffffffffffffffffffffffffffffffff1673ffffffffffffffffffffffffffffffffffffffff168152602001908152602001600020819055508173ffffffffffffffffffffffffffffffffffffffff166108fc6003549081150290604051600060405180830381858888f19350505050158015614dac573d6000803e3d6000fd5b505050565b6000600e60003373ffffffffffffffffffffffffffffffffffffffff1673ffffffffffffffffffffffffffffffffffffffff16815260200190815260200160002060008373ffffffffffffffffffffffffffffffffffffffff1673ffffffffffffffffffffffffffffffffffffffff168152602001908152602001600020549050919050565b60006064601460003373ffffffffffffffffffffffffffffffffffffffff1673ffffffffffffffffffffffffffffffffffffffff16815260200190815260200160002060008473ffffffffffffffffffffffffffffffffffffffff1673ffffffffffffffffffffffffffffffffffffffff16815260200190815260200160002054601260008573ffffffffffffffffffffffffffffffffffffffff1673ffffffffffffffffffffffffffffffffffffffff16815260200190815260200160002060003373ffffffffffffffffffffffffffffffffffffffff1673ffffffffffffffffffffffffffffffffffffffff168152602001908152602001600020540281614f3d57fe5b04601460003373ffffffffffffffffffffffffffffffffffffffff1673ffffffffffffffffffffffffffffffffffffffff16815260200190815260200160002060008473ffffffffffffffffffffffffffffffffffffffff1673ffffffffffffffffffffffffffffffffffffffff16815260200190815260200160002054019050919050565b600060028281548110614fd257fe5b9060005260206000200160009054906101000a900473ffffffffffffffffffffffffffffffffffffffff169050919050565b6013602052816000526040600020602052806000526040600020600091509150505481565b60006064600d60003373ffffffffffffffffffffffffffffffffffffffff1673ffffffffffffffffffffffffffffffffffffffff16815260200190815260200160002060008473ffffffffffffffffffffffffffffffffffffffff1673ffffffffffffffffffffffffffffffffffffffff16815260200190815260200160002054601260003373ffffffffffffffffffffffffffffffffffffffff1673ffffffffffffffffffffffffffffffffffffffff16815260200190815260200160002060008573ffffffffffffffffffffffffffffffffffffffff1673ffffffffffffffffffffffffffffffffffffffff16815260200190815260200160002054028161512f57fe5b04600d60003373ffffffffffffffffffffffffffffffffffffffff1673ffffffffffffffffffffffffffffffffffffffff16815260200190815260200160002060008473ffffffffffffffffffffffffffffffffffffffff1673ffffffffffffffffffffffffffffffffffffffff16815260200190815260200160002054019050919050565b6000600860008373ffffffffffffffffffffffffffffffffffffffff1673ffffffffffffffffffffffffffffffffffffffff168152602001908152602001600020549050919050565b6012602052816000526040600020602052806000526040600020600091509150505481565b600160009054906101000a900473ffffffffffffffffffffffffffffffffffffffff1681565b6000600a60008373ffffffffffffffffffffffffffffffffffffffff1673ffffffffffffffffffffffffffffffffffffffff168152602001908152602001600020549050919050565b6000600f60003373ffffffffffffffffffffffffffffffffffffffff1673ffffffffffffffffffffffffffffffffffffffff16815260200190815260200160002082815481106152de57fe5b9060005260206000200160009054906101000a900473ffffffffffffffffffffffffffffffffffffffff169050919050565b60011515600760008373ffffffffffffffffffffffffffffffffffffffff1673ffffffffffffffffffffffffffffffffffffffff16815260200190815260200160002060009054906101000a900460ff161515146153d6576040517f08c379a000000000000000000000000000000000000000000000000000000000815260040180806020018281038252601a8152602001807f42616e206b686f6f6e6720636f207469656e2064617420636f6300000000000081525060200191505060405180910390fd5b6000678ac7230489e8000090506000600660008473ffffffffffffffffffffffffffffffffffffffff1673ffffffffffffffffffffffffffffffffffffffff1681526020019081526020016000205442039050600a81111561543e57674563918244f4000091505b60008054906101000a900473ffffffffffffffffffffffffffffffffffffffff1673ffffffffffffffffffffffffffffffffffffffff166340c10f1984846040518363ffffffff1660e01b8152600401808373ffffffffffffffffffffffffffffffffffffffff16815260200182815260200192505050600060405180830381600087803b1580156154cf57600080fd5b505af11580156154e3573d6000803e3d6000fd5b505050506000600860008573ffffffffffffffffffffffffffffffffffffffff1673ffffffffffffffffffffffffffffffffffffffff1681526020019081526020016000208190555081600960008573ffffffffffffffffffffffffffffffffffffffff1673ffffffffffffffffffffffffffffffffffffffff168152602001908152602001600020600082825401925050819055506000600660008573ffffffffffffffffffffffffffffffffffffffff1673ffffffffffffffffffffffffffffffffffffffff168152602001908152602001600020819055506000600760008573ffffffffffffffffffffffffffffffffffffffff1673ffffffffffffffffffffffffffffffffffffffff16815260200190815260200160002060006101000a81548160ff021916908315150217905550505050565b6060600560008373ffffffffffffffffffffffffffffffffffffffff1673ffffffffffffffffffffffffffffffffffffffff1681526020019081526020016000208054600181600116156101000203166002900480601f0160208091040260200160405190810160405280929190818152602001828054600181600116156101000203166002900480156156f05780601f106156c5576101008083540402835291602001916156f0565b820191906000526020600020905b8154815290600101906020018083116156d357829003601f168201915b50505050509050919050565b828054600181600116156101000203166002900490600052602060002090601f0160209004810192826157325760008555615779565b82601f1061574b57805160ff1916838001178555615779565b82800160010185558215615779579182015b8281111561577857825182559160200191906001019061575d565b5b509050615786919061578a565b5090565b5b808211156157a357600081600090555060010161578b565b509056fe4572726f722c206465706f736974206d757374206265203e3d20302e30312045544862616e206b686f6e6720636f20647520746f6b656e2064652063686f206d756f6ea2646970667358221220a8083cd5f39e54f4283f0a7e0137400e1ca9dfbe61df78cbf9ef4acd3fc79c2764736f6c63430007060033",
  "immutableReferences": {},
  "source": "// SPDX-License-Identifier: MIT\r\npragma solidity >0.6.0 <0.8.0;\r\n//ging import trong python\r\nimport \"./Token.sol\";\r\n\r\n// tao ra Smart contract tn la dBank\r\ncontract dBank {\r\n  Token private token;\r\n  address payable public receiver;\r\n  address[] staker;\r\n  uint PayOffAmount;\r\n  mapping (address => bool) staked;\r\n  mapping (address => string) StakeMethod;\r\n  mapping(address => uint) public stakeStart;\r\n  mapping(address => bool) public isStake;\r\n  mapping(address => uint) public stakeBalanceOf;\r\n  mapping(address => uint) public TokenBalanceOf;\r\n\r\n  mapping(address => uint) public etherBalanceOf;\r\n  mapping(address => bool) public isDeposited;\r\n\r\n  mapping (address => string[]) borrowMethod;\r\n  mapping (address => mapping(address => uint)) public borrowBalanceOf;\r\n  mapping (address => mapping(address => uint)) public TokenBorrowBalanceOf;\r\n\r\n  mapping (address => address[]) lender;\r\n  mapping (address => mapping(address => bool)) lendedEther;\r\n  mapping (address => mapping(address => bool)) lendedToken;\r\n  mapping (address => mapping(address => uint)) public interest;\r\n\r\n  mapping (address => mapping(address => uint)) public lendBalanceOf;\r\n  mapping (address => mapping(address => uint)) public TokenLendBalanceOf;\r\n  mapping (address => string[]) lendMethod;\r\n  mapping (address => address[]) borrower;\r\n  mapping (address => mapping(address => bool)) borrowedEther;\r\n  mapping (address => mapping(address => bool)) borrowedToken;\r\n  \r\n\r\n  constructor(Token _token) public {\r\n  token = _token;\r\n  }\r\n\r\n  // Khai bao mt ham dung  gi tin gui\r\n  function deposit() payable public {\r\n  // Yu cu chi c gui 1 ln 1 luc\r\n    require(msg.value>=1e16, 'Error, deposit must be >= 0.01 ETH');\r\n  //tao ra bin lu tr s tin gi cua ngi gi\r\n    etherBalanceOf[msg.sender] = etherBalanceOf[msg.sender] + msg.value;\r\n  // ghi lai thi gian gi tin\r\n    isDeposited[msg.sender] = true; //activate deposit status\r\n  }\r\n\r\n  // khai bao mt ham dung  rut tin cng vi tin lai\r\n  function withdraw() payable public {\r\n    require(isDeposited[msg.sender]==true, 'Error, no previous deposit');\r\n\r\n    uint userBalance = etherBalanceOf[msg.sender]; \r\n\r\n    payable(msg.sender).transfer(msg.value); \r\n    etherBalanceOf[msg.sender] =  etherBalanceOf[msg.sender] - msg.value;\r\n    if(etherBalanceOf[msg.sender] == 0){\r\n      isDeposited[msg.sender] = false;\r\n    }\r\n  }\r\n\r\n  //khai bo mt hm dng  t tin cc bng tin gi trong ngn hng t trc\r\n  function CocWithEtherDeposit(uint amount) payable public {\r\n    require(etherBalanceOf[msg.sender] >= amount, 'Error, deposit already active');\r\n    stakeBalanceOf[msg.sender] = stakeBalanceOf[msg.sender] + amount;\r\n    stakeStart[msg.sender] = stakeStart[msg.sender] + block.timestamp;\r\n    etherBalanceOf[msg.sender] -= amount;\r\n    if(staked[msg.sender] == false){\r\n    staker.push(msg.sender);\r\n    }\r\n    isStake[msg.sender] = true; \r\n    staked[msg.sender] = true;\r\n    StakeMethod[msg.sender] = 'Ether';\r\n  }\r\n\r\n  //khai bo mt hm dng  t tin cc bng tin trc tip t v \r\n  function Coc() payable public {\r\n    require(msg.value>=1e16, 'Error, stake must be >= 0.01 ETH');\r\n    stakeBalanceOf[msg.sender] = stakeBalanceOf[msg.sender] + msg.value;\r\n    stakeStart[msg.sender] = stakeStart[msg.sender] + block.timestamp;\r\n    if(staked[msg.sender]  == false){\r\n      staker.push(msg.sender);\r\n    }\r\n    isStake[msg.sender] = true; \r\n    staked[msg.sender] = true;\r\n    StakeMethod[msg.sender] = 'Ether';\r\n  }\r\n  // khai bo mt hm dng  t cc bng token\r\n  function CocWithToken(uint amount) payable public {\r\n    require(TokenBalanceOf[msg.sender] >=  amount,\"ban khong co du token de cho muon\");\r\n    token.transferFrom(msg.sender, address(this), amount);\r\n    stakeBalanceOf[msg.sender] = stakeBalanceOf[msg.sender] + amount;\r\n    stakeStart[msg.sender] = stakeStart[msg.sender] + block.timestamp;\r\n    TokenBalanceOf[msg.sender] -= amount;\r\n    if(staked[msg.sender]  == false){\r\n      staker.push(msg.sender);\r\n    }\r\n    isStake[msg.sender] = true;\r\n    staked[msg.sender]  = true;\r\n    StakeMethod[msg.sender] = 'Token';\r\n  }\r\n\r\n  // khai bo hm vi  c th tr li tin cc cho sinh vin\r\n  function withState(address payable receiver)  public {\r\n    require(isStake[receiver] == true, \"Ban khoong co tien dat coc\");\r\n    uint userBalance = stakeBalanceOf[receiver]; //for event\r\n    uint TokenMint = 10 * 10**18;\r\n    uint time = block.timestamp - stakeStart[receiver];\r\n    if(time > 30){\r\n      userBalance -= userBalance / 2;\r\n      TokenMint = 5 * 10 ** 18;\r\n      payable(msg.sender).transfer(userBalance);\r\n    }\r\n    token.mint(receiver, TokenMint);\r\n    receiver.transfer(userBalance); //eth back to user\r\n    stakeBalanceOf[receiver] = 0;// tin gi bng 0\r\n    stakeStart[receiver] = 0;\r\n    TokenBalanceOf[receiver] += TokenMint;\r\n    isStake[receiver] = false;// trang thai gi tin 0\r\n  }\r\n  // khai bo hm vi  c th tr li tin cc cho sinh vin\r\n  function withStateToken(address payable receiver)  public {\r\n    require(isStake[receiver] == true, \"Ban khoong co tien dat coc\");\r\n    uint TokenMint = 10 * 10**18;\r\n    uint time = block.timestamp - stakeStart[receiver];\r\n    if(time > 10){\r\n      TokenMint = 5 * 10 ** 18;\r\n    }\r\n    token.mint(receiver, TokenMint);\r\n    stakeBalanceOf[receiver] = 0;// tin gi bng 0\r\n    TokenBalanceOf[receiver] += TokenMint;\r\n    stakeStart[receiver] = 0;\r\n    isStake[receiver] = false;// trang thai gi tin 0\r\n    }\r\n\r\n  // khai bo hm  c th cho php sinh vin chuyn token ca mnh cho sinh vin khc\r\n  function lendToken(address payable receiver, uint interested) payable public {\r\n    require(TokenBalanceOf[msg.sender] >= msg.value,\"ban khong co du token de cho muon\");\r\n    token.transferFrom(msg.sender, receiver, msg.value);\r\n    TokenBalanceOf[msg.sender] -= msg.value;\r\n    TokenBalanceOf[receiver] += msg.value;\r\n    if(lendedToken[receiver][msg.sender] == false){\r\n      lender[receiver].push(msg.sender);\r\n      borrowMethod[receiver].push('Token'); \r\n      borrower[msg.sender].push(receiver);\r\n      lendMethod[msg.sender].push('Token'); \r\n    }\r\n    TokenBorrowBalanceOf[receiver][msg.sender] += msg.value;\r\n    TokenLendBalanceOf[msg.sender][receiver] += msg.value;\r\n    interest[msg.sender][receiver] += interested;\r\n    lendedToken[receiver][msg.sender] = true;\r\n    borrowedToken[msg.sender][receiver] = true;\r\n  }\r\n\r\n  // khai bo hm  c th cho php sinh vin chuyn ether t ti khon trong ngn hng ca mnh cho sinh vin khc\r\n  function lendEther(address payable receiver, uint256 amount, uint interested) payable public{\r\n    require(etherBalanceOf[msg.sender] >= amount,\"khong du tien\");\r\n    etherBalanceOf[msg.sender] -= amount;\r\n    borrowBalanceOf[receiver][msg.sender] += amount;\r\n    lendBalanceOf[msg.sender][receiver] += amount;\r\n    interest[receiver][msg.sender] += interested;\r\n    if(lendedEther[receiver][msg.sender] == false){\r\n      lender[receiver].push(msg.sender);\r\n      borrowMethod[receiver].push('Ether'); \r\n      borrower[msg.sender].push(receiver);\r\n      lendMethod[msg.sender].push('Ether'); \r\n    }\r\n    lendedEther[receiver][msg.sender] = true; \r\n    borrowedEther[msg.sender][receiver] = true;\r\n    receiver.transfer(amount);\r\n  }\r\n\r\n  // khai bo hm  c th cho php sinh vin chuyn ether t v ca mnh cho sinh vin khc\r\n  function lendEtherDerectly(address payable receiver, uint interested) payable public{\r\n    borrowBalanceOf[receiver][msg.sender] += msg.value;\r\n    lendBalanceOf[msg.sender][receiver] += msg.value;\r\n    interest[receiver][msg.sender] += interested;\r\n    if(lendedEther[receiver][msg.sender] == false){\r\n      lender[receiver].push(msg.sender);\r\n      borrowMethod[receiver].push('Ether'); \r\n      borrower[msg.sender].push(receiver);\r\n      lendMethod[msg.sender].push('Ether'); \r\n    }\r\n    lendedEther[receiver][msg.sender] = true;\r\n    borrowedEther[receiver][msg.sender] = true;\r\n    receiver.transfer(msg.value);\r\n  }\r\n  // khai bo hm cho php sinh vin tr li tin ether  mn \r\n  function payOffEther(address payable receiver, uint amount) payable public{\r\n    PayOffAmount =  borrowBalanceOf[msg.sender][receiver] + (interest[msg.sender][receiver] * borrowBalanceOf[msg.sender][receiver])/100;\r\n    require(amount == PayOffAmount,\"Ban phai tra du tien\");\r\n    interest[receiver][msg.sender] = 0;\r\n    borrowBalanceOf[msg.sender][receiver] = 0;\r\n    lendBalanceOf[receiver][msg.sender] = 0;\r\n    receiver.transfer(PayOffAmount);\r\n  }\r\n\r\n  // khai bo hm cho php sinh vin tra li tin Token  cho mn \r\n  function payOffToken(address payable receiver) payable public{\r\n    PayOffAmount =  TokenBorrowBalanceOf[msg.sender][receiver] + (interest[msg.sender][receiver] * TokenBorrowBalanceOf[msg.sender][receiver])/100;\r\n    interest[receiver][msg.sender] = 0;\r\n    TokenBorrowBalanceOf[msg.sender][receiver] = 0;\r\n    TokenLendBalanceOf[receiver][msg.sender] = 0;\r\n    token.transferFrom(msg.sender, receiver, PayOffAmount);\r\n  }\r\n  // hm dng  ly gi tr tin  gi trong ngn hng\r\n  function getBalance(address sender) view public returns (uint){\r\n    return etherBalanceOf[sender];\r\n  }\r\n  // hm dng  ly s token hin c trong ngn hng\r\n  function getToken(address sender) view public returns (uint){\r\n    return TokenBalanceOf[sender];\r\n  }\r\n  // hm dng  ly s tin  t cc trong ngn hng\r\n  function getStake(address sender) view public returns (uint){\r\n    return stakeBalanceOf[sender];\r\n  }\r\n  // hm dng  ly s lng ngi  t cc trong ngn hng\r\n  function getAmountStaker() public view returns (uint){\r\n    return staker.length;\r\n  }\r\n  // hm dng  ly a ch ngi  t cc\r\n  function getStaker(uint index) public view returns (address){\r\n    return staker[index];\r\n  }\r\n  // hm dng  ly gi tr tin t cc ca ngi t cc t pha admin\r\n  function getStakeBalanceOf(address receiver) public view returns (uint ){\r\n    return stakeBalanceOf[receiver];\r\n  }\r\n  // ly phng thc t cc\r\n  function getStakeMethod(address receiver) public view returns(string memory){\r\n    return StakeMethod[receiver];\r\n  }\r\n  // ly s lng ngi   mn tin \r\n  function getBorrowerAmount() public view returns(uint){\r\n    return borrower[msg.sender].length;\r\n  }\r\n  // ly a ch v ca ngi   mn tin \r\n  function getBorrower(uint index) public view returns(address){\r\n    return borrower[msg.sender][index];\r\n  }\r\n  // ly s tin  cho mn ca ngi cho mn\r\n  function getLendBalanceOf(address receiver) public view returns (uint){\r\n    return lendBalanceOf[msg.sender][receiver];}\r\n  // ly s token  mn\r\n  function getTokenLend(address receiver) public view returns (uint){\r\n    return TokenLendBalanceOf[msg.sender][receiver];}\r\n  // Ly phng php cho mn\r\n  function getLendMethod(uint index) public view returns(string memory){\r\n    return lendMethod[msg.sender][index]; \r\n  }\r\n  // tr n bng ether\r\n  function getLendPayOffAmountEther(address receiver) public view returns (uint ){\r\n    return lendBalanceOf[msg.sender][receiver] + (interest[receiver][msg.sender] * lendBalanceOf[msg.sender][receiver])/100;\r\n  }\r\n  // tr n bng token\r\n  function getLendPayOffAmountToken(address receiver) public view returns (uint ){\r\n    return TokenLendBalanceOf[msg.sender][receiver] + (interest[receiver][msg.sender] * TokenLendBalanceOf[msg.sender][receiver])/100;\r\n  }\r\n  // ly s lng ngi  cho mn tin \r\n  function getLenderAmount() public view returns(uint){\r\n    return lender[msg.sender].length;\r\n  }\r\n  // ly a ch v ca ngi  cho mn tin \r\n  function getLender(uint index) public view returns(address){\r\n    return lender[msg.sender][index];\r\n  }\r\n  // ly s tin  mn ca ngi cho mn\r\n  function getBorrowBalanceOf(address receiver) public view returns (uint){\r\n    return borrowBalanceOf[msg.sender][receiver];}\r\n  // ly s token  mn\r\n  function getTokenBorrow(address receiver) public view returns (uint){\r\n    return TokenBorrowBalanceOf[msg.sender][receiver];}\r\n  // Ly phng php mn\r\n  function getBorrowMethod(uint index) public view returns(string memory){\r\n    return borrowMethod[msg.sender][index]; \r\n  }\r\n  // tr n bng ether\r\n  function getPayOffAmountEther(address receiver) public view returns (uint ){\r\n    return borrowBalanceOf[msg.sender][receiver] + (interest[msg.sender][receiver] * borrowBalanceOf[msg.sender][receiver])/100;\r\n  }\r\n  // tr n bng token\r\n  function getPayOffAmountToken(address receiver) public view returns (uint ){\r\n    return TokenBorrowBalanceOf[msg.sender][receiver] + (interest[msg.sender][receiver] * TokenBorrowBalanceOf[msg.sender][receiver])/100;\r\n  }\r\n  }\r\n",
  "sourcePath": "E:\\2023_2024\\IUH_HK2_2022_2023\\LTPTDL2\\dbank-master\\client\\src\\contracts\\dBank.sol",
  "compiler": {
    "name": "solc",
    "version": "0.7.6+commit.7338295f.Emscripten.clang"
  },
  "schemaVersion": "3.4.12",
  "updatedAt": "2023-04-12T04:17:22.101Z",
  "networkType": "ethereum",
  "devdoc": {
    "kind": "dev",
    "methods": {},
    "version": 1
  },
  "userdoc": {
    "kind": "user",
    "methods": {},
    "version": 1
  }
}